:020000040000FA
:020000040003F7
:10484C007A020000000008007902000000003A0023
:10485C007A020000000022007A020000000017001B
:10486C007902000000002B00790200000000190002
:10487C007A020000000003007902000000001D0015
:10488C007A020000000032007A02000000000400EE
:10489C007902000000002E007A02000000003300B4
:1048AC007A020000000011003000000000000E0031
:1048BC007A020000000036007A020000000034008A
:1048CC007A020000000015007A02000000002F00A0
:1048DC0078020000000034007A020000000013008F
:1048EC007902000000002E007A02000000003C005B
:1048FC007902000000003C007902000000002D004D
:10490C003000000000002B007802000000001000B6
:10491C0079020000000021007A0200000000310042
:10492C0030000000000024003000000000001B00DC
:10493C0078020000000000007A020000000006006F
:10494C007A020000000010007902000000000B0049
:10495C0030000000000012007802000000000E0081
:10496C0030000000000014007A02000000001A0061
:10497C003000000000003700780200000000330017
:10498C007A02000000001E007A02000000002500E0
:10499C003000000000002D0030000000000011006D
:1049AC0079020000000027007A02000000002F00AE
:1049BC0079020000000031007802000000000400C1
:1049CC0030000000000001007A02000000003300FB
:1049DC007902000000000A003000000000003500E1
:1049EC007902000000001D007902000000000D009B
:1049FC0030000000000032003000000000000C000D
:104A0C0079020000000005003000000000002300C7
:104A1C007A020000000022003000000000001C00A0
:104A2C007A020000000022007902000000003B0026
:104A3C0030000000000036007A02000000003A004E
:104A4C007102000000003D0078020000000026000A
:104A5C003000000000000F003000000000001C00BF
:104A6C007902000000001A00300000000000350040
:104A7C007A020000000027007A02000000001A00F1
:104A8C007A02000000002100300000000000390014
:104A9C0072020000000038007802000000001200D2
:104AAC0030000000000009007A02000000000C0039
:104ABC007A02000000003F003000000000000800F7
:104ACC0030000000000024007802000000003E00CE
:104ADC003000000000002B007A02000000000A00E9
:104AEC007902000000002900780200000000260076
:104AFC007A02000000002A003000000000001E00B6
:104B0C0078020000000024007A020000000004007B
:104B1C007A020000000008003000000000000B00CA
:104B2C0079020000000009003000000000000F00B6
:104B3C007902000000001B003000000000000000A3
:104B4C007902000000003E003000000000001B0055
:104B5C007A02000000003D007102000000002000FD
:104B6C0079020000000039007A02000000002800E1
:104B7C0079020000000034007902000000003B00C4
:104B8C007902000000003B0030000000000005002E
:104B9C003000000000002F00790200000000160019
:104BAC007A020000000019007102000000003A00B7
:104BBC0079020000000001007902000000002500CD
:104BCC007A020000000021007902000000001600AB
:104BDC007A020000000007007902000000000A00C1
:104BEC007A02000000000D00790200000000340081
:104BFC007A02000000003000300000000000370096
:104C0C007A02000000000A00790200000000060091
:104C1C0030000000000030003000000000003C00BC
:104C2C003000000000001700790200000000360080
:104C3C007A02000000002C00790200000000010044
:104C4C003000000000001000790200000000290074
:104C5C007A02000000001800780200000000370003
:104C6C007A02000000002C007A02000000001500FF
:104C7C0071020000000002007902000000001E001A
:104C8C007A02000000002B007902000000000000F6
:104C9C0071020000000028007902000000002A00C8
:104CAC007802000000001E003000000000002D0003
:104CBC0030000000000032007902000000003D00CE
:104CCC007A02000000001C003000000000002400EC
:104CDC0079020000000030003000000000000500E8
:104CEC0079020000000013007A020000000013009B
:104CFC0030000000000011007902000000003300B9
:104D0C007902000000002C0030000000000025009B
:104D1C007A0200000000350030000000000039006D
:104D2C003000000000002A00790200000000310071
:104D3C007A0200000000300079020000000003003D
:104D4C003000000000002A007902000000000E0074
:104D5C007A02000000000C00300000000000370058
:104D6C007902000000000200300000000000180072
:104D7C00300000000000070030000000000031008F
:104D8C007A020000000025003000000000003F0007
:104D9C0078020000000029007A02000000002C00BC
:104DAC0078020000000014007902000000003200BC
:104DBC003000000000003A007A02000000000B00F6
:104DCC0079020000000039007902000000000100A7
:104DDC0079020000000009007A020000000028009F
:104DEC007A02000000002600790200000000040096
:104DFC0030000000000017007A02000000000000E4
:104E0C0030000000000014007802000000001100C7
:104E1C007902000000001800780200000000100069
:104E2C007A02000000003B007A02000000001F0024
:104E3C007902000000002800790200000000070041
:104E4C007A02000000001D0079020000000007003B
:104E5C0079020000000017007902000000001F001A
:104E6C0079020000000012007902000000001C0012
:104E7C007902000000002600780200000000090002
:104E8C007902000000003C003000000000001A0015
:104E9C0079020000000023007902000000003800B5
:104EAC0030000000000020007802000000003E00EE
:104EBC007902000000000C003000000000002F0000
:104ECC007A020000000003007802000000002700B6
:104EDC007902000000002E007A020000000014008D
:104EEC007802000000000B007A020000000038007D
:104EFC007A02000000001D007902000000003F0053
:104F0C0030000000000003007902000000000600E1
:104F1C007902000000003500790200000000160044
:104F2C0078020000000019007A02000000000D0059
:104F3C003000000000001F003000000000000F00D7
:104F4C0079020000000006007902000000000D004C
:104F5C007902000000001900300000000000290058
:104F6C007A02000000000E007902000000001B0015
:104F7C0030000000000020007A02000000003F001A
:104F8C007A020000000005007902000000003600E3
:104F9C0079020000000008007902000000002E00D9
:104FAC0071020000000027007902000000002100BF
:104FBC0071020000000023003000000000003E00E1
:104FCC007A02000000003D00710200000000150094
:104FDC00300000000000150030000000000016003A
:104FEC003000000000000F007802000000001F00DD
:104FFC003000000000002D007A02000000002000AC
:10500C00790200000000020079020000000022007A
:10501C007A02000000001800300000000000380088
:10502C0071020000000013000000000000000000EE
:00000001FF